:100000000C945D000C9485000C9485000C94850084
:100010000C9485000C9485000C9485000C9485004C
:100020000C9485000C9485000C9485000C9485003C
:100030000C9485000C9485000C9485000C9485002C
:100040000C949F040C9485000C946D040C9447044C
:100050000C9485000C9485000C9485000C9485000C
:100060000C9485000C94850000000008000201003B
:100070000003040700000000000000000000000072
:10008000250028002B0000000000240027002A0083
:10009000040404040404040402020202020203032E
:1000A0000303030301020408102040800102040836
:1000B0001020010204081020E90411241FBECFEF14
:1000C000D8E0DEBFCDBF11E0A0E0B1E0E6ECFCE09F
:1000D00002C005900D92A633B107D9F721E0A6E33F
:1000E000B1E001C01D92AA3FB207E1F710E0CDE5F3
:1000F000D0E004C02197FE010E945B06CC35D107F9
:10010000C9F70E9433050C9461060C94000090E03E
:10011000FC01EC55FF4F249180579F4FFC018491C7
:10012000882399F090E0880F991FFC01EA57FF4F50
:10013000A591B491FC01E458FF4F859194918FB73C
:10014000F894EC91E22BEC938FBF0895AF92BF929D
:10015000CF92DF92EF92FF920F931F93CF93DF9393
:100160006C017B018B01040F151FEB015E01AE18C2
:10017000BF08C017D10759F06991D601ED91FC91E4
:100180000190F081E02DC6010995892B79F7C50111
:10019000DF91CF911F910F91FF90EF90DF90CF9063
:1001A000BF90AF900895FC01538D448D252F30E012
:1001B000842F90E0821B930B541710F0CF96089574
:1001C00001970895FC01918D828D981761F0A28DA1
:1001D000AE0FBF2FB11D5D968C91928D9F5F9F7367
:1001E000928F90E008958FEF9FEF0895FC01918D1D
:1001F000828D981731F0828DE80FF11D858D90E08A
:1002000008958FEF9FEF0895FC01918D228D892F26
:1002100090E0805C9F4F821B91098F73992708950E
:1002200085E491E00E94040121E0892B09F420E09B
:10023000822F089580E090E0892B29F00E94100120
:1002400081110C9400000895FC01A48DA80FB92F12
:10025000B11DA35ABF4F2C91848D90E001968F73EE
:100260009927848FA689B7892C93A089B1898C910D
:10027000837080648C93938D848D981306C002885C
:10028000F389E02D80818F7D80830895EF92FF9226
:100290000F931F93CF93DF93EC0181E0888F9B8DA9
:1002A0008C8D98131AC0E889F989808185FF15C063
:1002B0009FB7F894EE89FF896083E889F989808186
:1002C0008370806480839FBF81E090E0DF91CF9155
:1002D0001F910F91FF90EF900895F62E0B8D10E077
:1002E0000F5F1F4F0F731127E02E8C8D8E110CC0E6
:1002F0000FB607FCFACFE889F989808185FFF5CF31
:10030000CE010E942401F1CFEB8DEC0FFD2FF11DEA
:10031000E35AFF4FF0829FB7F8940B8FEA89FB896D
:1003200080818062CFCFCF93DF93EC01888D8823CB
:10033000B9F0AA89BB89E889F9898C9185FD03C048
:10034000808186FD0DC00FB607FCF7CF8C9185FF2D
:10035000F2CF808185FFEDCFCE010E942401E9CF4D
:10036000DF91CF91089590E0FC01E859FF4F24916F
:10037000FC01EC55FF4F3491FC01E057FF4FE49135
:10038000EE23C9F0222339F0233001F1A8F4213003
:1003900019F1223029F1F0E0EE0FFF1FE458FF4F72
:1003A000A591B4918FB7F894EC91611126C0309566
:1003B0003E233C938FBF08952730A9F02830C9F021
:1003C000243049F7809180008F7D03C080918000A8
:1003D0008F7780938000DFCF84B58F7784BDDBCFAC
:1003E00084B58F7DFBCF8091B0008F778093B00074
:1003F000D2CF8091B0008F7DF9CF3E2BDACF8E50D7
:10040000806480937C0080917A00806480937A007D
:1004100080917A0086FDFCCF8091780090917900E0
:1004200008953FB7F89480913B0190913C01A091D1
:100430003D01B0913E0126B5A89B05C02F3F19F0A4
:100440000196A11DB11D3FBFBA2FA92F982F882754
:10045000BC01CD01620F711D811D911D42E0660F2F
:10046000771F881F991F4A95D1F708958F929F9201
:10047000AF92BF92CF92DF92EF92FF920E94110251
:100480004B015C0180EDC82E87E0D82EE12CF12CC9
:100490000E941102681979098A099B09683E734014
:1004A00081059105A8F321E0C21AD108E108F108FD
:1004B00088EE880E83E0981EA11CB11CC114D104E3
:1004C000E104F10429F7FF90EF90DF90CF90BF9007
:1004D000AF909F908F900895089590E080E00895E8
:1004E0008F929F92AF92BF920F931F93CF93DF9300
:1004F000CDB7DEB7A1970FB6F894DEBF0FBECDBF64
:1005000019A2423008F44AE08E010F5D1F4F842E7D
:10051000912CB12CA12CA50194010E943906E62F43
:10052000B901CA01EA3044F5E05DD801EE938D01CE
:10053000232B242B252B79F790E080E0109769F08E
:10054000FD0101900020E9F73197AF014A1B5B0BD9
:10055000BD0182EE91E00E94A600A1960FB6F8942C
:10056000DEBF0FBECDBFDF91CF911F910F91BF9026
:10057000AF909F908F900895E95CD7CFFC010190D8
:100580000020E9F73197AF01481B590BBC0182EEFF
:1005900091E00C94A600CF93DF93EC0160E08E8194
:1005A0000E94B30161E08E810E94B30160E08E8100
:1005B0000E94B3018BE891E00197F1F7DF91CF91B1
:1005C0000895CF92DF92EF92FF920F931F93CF93F4
:1005D000DF936C017C0187E0E80EF11CD0E0C0E005
:1005E000062F10E0B8010C2E02C0759567950A948D
:1005F000E2F76170F70181917F010E94B3012196BA
:10060000C430D10579F7C601DF91CF911F910F91C9
:10061000FF90EF90DF90CF900C94CB02CF92DF92BF
:10062000EF92FF920F931F93CF93DF93EC01F62E7F
:10063000642F8C810E94B3018D818F3F19F060E09F
:100640000E94B3010F2D10E08F8584FF25C06E013D
:1006500087E0C80ED11CF12CE12CB8010E2C02C091
:10066000759567950A94E2F76170F60181916F01C3
:100670000E94B301FFEFEF1AFF0A88E0E816F104C9
:1006800061F7CE01DF91CF911F910F91FF90EF9015
:10069000DF90CF900C94CB02B80184E075956795FC
:1006A0008A95E1F7CE010E94E1026F2DCE01DF9124
:1006B000CF911F910F91FF90EF90DF90CF900C940E
:1006C000E10240E0682F82EE91E00C940E03CF939C
:1006D000DF93823029F49091F10198609093F101B9
:1006E0008093F5011092F60180E48093F70180E198
:1006F0008093F80180E58093F9018091E6010E94E2
:1007000087008091E7018F3F11F00E948700809160
:10071000E8010E948700C2EED1E09E01225E3140D6
:100720008091F10184FD0AC084E090E021962817B1
:1007300039073CF48E810E948700EFCF88E090E07B
:10074000F5CF8BE39DE00197F1F760E08091E60142
:100750000E94B30160E08091E8010E94B3018091A2
:10076000E7018F3F19F060E00E94B3018091F10131
:1007700084FD39C063E082EE91E00E94E102CBE4A7
:10078000D6E4CE010197F1F763E082EE91E00E949A
:10079000E1022197F1F763E082EE91E00E94E1022D
:1007A00083E592E00197F1F762E082EE91E00E942A
:1007B000E1028091F10180620E94610384E08093F4
:1007C000F2018CE00E94610381E00E9461038BE3EF
:1007D0009FE10197F1F782E08093F30186E0DF91DA
:1007E000CF910C94610380620E9461038BE496E4D4
:1007F0000197F1F78091F10180620E94610383E526
:1008000092E00197F1F78091F10180620E9461030B
:10081000D0CF9091F501691710F06FEF690FE62FB7
:10082000F0E0EE51FE4F9489890F80680C946103CB
:1008300041E00E940E0381E090E00895CF92DF92A4
:10084000EF92FF926C01990FEE08FF08F7FE16C0B9
:1008500041E06DE282EE91E00E940E036627772769
:10086000CB016C197D098E099F094AE00E94700234
:100870000196FF90EF90DF90CF9008954AE0C70176
:10088000B601FF90EF90DF90CF900C9470021F9212
:100890000F920FB60F9211242F933F934F935F93B4
:1008A0006F937F938F939F93AF93BF93EF93FF9338
:1008B00085E491E00E942401FF91EF91BF91AF91F7
:1008C0009F918F917F916F915F914F913F912F9168
:1008D0000F900FBE0F901F9018951F920F920FB69A
:1008E0000F9211242F938F939F93EF93FF93E09197
:1008F0005501F09156018081E0915B01F0915C011E
:1009000082FD1BC0908180915E018F5F8F7320916B
:100910005F01821741F0E0915E01F0E0EB5BFE4F7A
:10092000958F80935E01FF91EF919F918F912F9111
:100930000F900FBE0F901F9018958081F4CF1F92DB
:100940000F920FB60F9211242F933F938F939F9383
:10095000AF93BF938091370190913801A0913901F5
:10096000B0913A013091360123E0230F2D3758F52D
:100970000196A11DB11D20933601809337019093FC
:100980003801A0933901B0933A0180913B019091D5
:100990003C01A0913D01B0913E010196A11DB11D08
:1009A00080933B0190933C01A0933D01B0933E01A5
:1009B000BF91AF919F918F913F912F910F900FBE5B
:1009C0000F901F90189526E8230F0296A11DB11DC8
:1009D000D2CFE5E4F1E01382128288EE93E0A0E04A
:1009E000B0E084839583A683B78384E091E091830C
:1009F000808385EC90E09587848784EC90E09787EE
:100A0000868780EC90E0918B808B81EC90E0938BDB
:100A1000828B82EC90E0958B848B86EC90E0978BB8
:100A2000868B118E128E138E148EE2EEF1E01382FD
:100A3000128286E191E0918380838DE084838FEF41
:100A400085838CE0868388E0878387E0808784E0E5
:100A5000818782E08287138614861586168617861C
:100A600081E00C946703789484B5826084BD84B57A
:100A7000816084BD85B5826085BD85B5816085BD99
:100A800080916E00816080936E0010928100809151
:100A900081008260809381008091810081608093D9
:100AA0008100809180008160809380008091B100FE
:100AB00084608093B1008091B00081608093B00029
:100AC00080917A00846080937A0080917A008260BD
:100AD00080937A0080917A00816080937A0080917F
:100AE0007A00806880937A001092C100E0915501ED
:100AF000F091560182E08083E0915101F091520122
:100B00001082E0915301F09154018FEC8083109298
:100B10005D01E0915901F0915A0186E08083E091F6
:100B20005701F0915801808180618083E0915701E5
:100B3000F0915801808188608083E0915701F091A5
:100B40005801808180688083E0915701F0915801BD
:100B500080818F7D808382E00E94670383E00E9412
:100B60008700CBE3DFE100E010E061E083E00E947A
:100B7000B3018EE00E94FF019093440180934301F2
:100B800060E080E00E9409048EE191E00E94BE02D4
:100B900060E085E00E940904809143019091440146
:100BA0000E941E048FE00E94FF01909342018093F7
:100BB000410161E080E00E94090484E291E00E942A
:100BC000BE0261E085E00E9409048091410190919C
:100BD00042010E941E040E94360281E00E946103CD
:100BE000CE010197F1F780E10E94FF01909340014F
:100BF00080933F0160E080E00E9409048AE291E076
:100C00000E94BE0260E085E00E94090480913F01DD
:100C1000909140010E941E0481E10E94FF01909387
:100C200042018093410161E080E00E94090480E379
:100C300091E00E94BE0261E085E00E94090480917B
:100C40004101909142010E941E040E94360260E020
:100C500083E00E94B3010E9436020115110509F4D8
:100C600084CF0E941001882309F47FCF0E940000E6
:100C70007CCFA1E21A2EAA1BBB1BFD010DC0AA1F2F
:100C8000BB1FEE1FFF1FA217B307E407F50720F0F5
:100C9000A21BB30BE40BF50B661F771F881F991F70
:100CA0001A9469F760957095809590959B01AC01B9
:100CB000BD01CF010895EE0FFF1F0590F491E02DC7
:060CC0000994F894FFCF37
:100CC600000000004601A600D30093010401E200E3
:100CD600F600000000001804A6006D026C02464CE7
:100CE600414D45004C4947485400534D4F4B450034
:060CF600444854313100B6
:00000001FF
