:100000000C945D000C9485000C9485000C94850084
:100010000C9485000C9485000C9485000C9485004C
:100020000C9485000C9485000C9485000C9485003C
:100030000C9485000C9485000C9485000C9485002C
:100040000C94D2020C9485000C9485000C948500CD
:100050000C9485000C9485000C9485000C9485000C
:100060000C9485000C94850000000008000201003B
:100070000003040700000000000000000000000072
:10008000250028002B0000000000240027002A0083
:10009000040404040404040402020202020203032E
:1000A0000303030301020408102040800102040836
:1000B00010200102040810202F0411241FBECFEFCE
:1000C000D8E0DEBFCDBF11E0A0E0B1E0EAEAF8E0A1
:1000D00002C005900D92A233B107D9F721E0A2E347
:1000E000B1E001C01D92A335B207E1F710E0CDE504
:1000F000D0E004C02197FE010E944D04CC35D10709
:10010000C9F70E941C030C9453040C94000090E067
:10011000FC01EC55FF4F249180579F4FFC018491C7
:10012000882399F090E0880F991FFC01EA57FF4F50
:10013000A591B491FC01E458FF4F859194918FB73C
:10014000F894EC91E22BEC938FBF0895AF92BF929D
:10015000CF92DF92EF92FF920F931F93CF93DF9393
:100160006C017B018B01040F151FEB015E01AE18C2
:10017000BF08C017D10759F06991D601ED91FC91E4
:100180000190F081E02DC6010995892B79F7C50111
:10019000DF91CF911F910F91FF90EF90DF90CF9063
:1001A000BF90AF90089590E0FC01E859FF4F249173
:1001B000FC01EC55FF4F3491FC01E057FF4FE491F7
:1001C000EE23C9F0222339F0233001F1A8F42130C5
:1001D00019F1223029F1F0E0EE0FFF1FE458FF4F34
:1001E000A591B4918FB7F894EC91611126C0309528
:1001F0003E233C938FBF08952730A9F02830C9F0E3
:10020000243049F7809180008F7D03C08091800069
:100210008F7780938000DFCF84B58F7784BDDBCF6D
:1002200084B58F7DFBCF8091B0008F778093B00035
:10023000D2CF8091B0008F7DF9CF3E2BDACF3FB780
:10024000F8948091370190913801A0913901B091D3
:100250003A0126B5A89B05C02F3F19F00196A11DB4
:10026000B11D3FBFBA2FA92F982F8827BC01CD0100
:10027000620F711D811D911D42E0660F771F881F5F
:10028000991F4A95D1F708958F929F92AF92BF928E
:10029000CF92DF92EF92FF920E941F014B015C010F
:1002A00088E8C82E83E1D82EE12CF12C0E941F0192
:1002B000681979098A099B09683E7340810591058F
:1002C000A8F321E0C21AD108E108F10888EE880EEF
:1002D00083E0981EA11CB11CC114D104E104F104F7
:1002E00029F7FF90EF90DF90CF90BF90AF909F9055
:1002F0008F900895089590E080E00895FC010190AA
:100300000020E9F73197AF01481B590BBC018BE383
:1003100091E00C94A600CF93DF93EC0160E08E8116
:100320000E94D30061E08E810E94D30060E08E8144
:100330000E94D3008BE891E00197F1F7DF91CF9114
:100340000895CF92DF92EF92FF920F931F93CF9376
:10035000DF936C017C0187E0E80EF11CD0E0C0E087
:10036000062F10E0B8010C2E02C0759567950A940F
:10037000E2F76170F70181917F010E94D30021961D
:10038000C430D10579F7C601DF91CF911F910F914C
:10039000FF90EF90DF90CF900C948B01CF92DF9283
:1003A000EF92FF920F931F93CF93DF93EC01F62E02
:1003B000642F8C810E94D3008D818F3F19F060E003
:1003C0000E94D3000F2D10E08F8584FF25C06E01A1
:1003D00087E0C80ED11CF12CE12CB8010E2C02C014
:1003E000759567950A94E2F76170F60181916F0146
:1003F0000E94D300FFEFEF1AFF0A88E0E816F1042D
:1004000061F7CE01DF91CF911F910F91FF90EF9097
:10041000DF90CF900C948B01B80184E075956795BF
:100420008A95E1F7CE010E94A1016F2DCE01DF91E7
:10043000CF911F910F91FF90EF90DF90CF900C9490
:10044000A10140E0682F8BE391E00C94CE0181E0A4
:100450000E9421028BE39FE10197F1F70895CF936A
:10046000DF93823029F490914A01986090934A0179
:1004700080934E0110924F0180E48093500180E1FF
:100480008093510180E58093520180913F010E9449
:100490008700809140018F3F11F00E94870080917A
:1004A00041010E948700CBE3D1E09E012B533140F4
:1004B00080914A0184FD0AC084E090E021962817CB
:1004C00039073CF48E810E948700EFCF88E090E0EE
:1004D000F5CF8BE39DE00197F1F760E080913F015C
:1004E0000E94D30060E0809141010E94D30080917E
:1004F00040018F3F19F060E00E94D30080914A01D3
:1005000084FD34C063E08BE391E00E94A101CBE461
:10051000D6E4CE010197F1F763E08BE391E00E940E
:10052000A1012197F1F763E08BE391E00E94A10123
:1005300083E592E00197F1F762E08BE391E00E949E
:10054000A10180914A0180620E94210284E080938F
:100550004B018CE00E9421020E94270282E08093DE
:100560004C0186E0DF91CF910C94210280620E94C1
:1005700021028BE496E40197F1F780914A018062B1
:100580000E94210283E592E00197F1F780914A01F0
:1005900080620E942102D5CF41E00E94CE0181E01D
:1005A00090E008951F920F920FB60F9211242F938F
:1005B0003F938F939F93AF93BF938091330190911B
:1005C0003401A0913501B09136013091320123E020
:1005D000230F2D3758F50196A11DB11D209332012F
:1005E0008093330190933401A0933501B093360189
:1005F0008091370190913801A0913901B0913A0171
:100600000196A11DB11D8093370190933801A093ED
:100610003901B0933A01BF91AF919F918F913F9172
:100620002F910F900FBE0F901F90189526E8230F63
:100630000296A11DB11DD2CF789484B5826084BD8D
:1006400084B5816084BD85B5826085BD85B58160D6
:1006500085BD80916E00816080936E001092810054
:10066000809181008260809381008091810081600F
:1006700080938100809180008160809380008091D0
:10068000B10084608093B1008091B000816080935C
:10069000B00080917A00846080937A0080917A0023
:1006A000826080937A0080917A00816080937A00E2
:1006B00080917A00806880937A001092C10082E075
:1006C0000E942F0283E00E94870086E00E9487003C
:1006D0008AE00E9487008EE00E94870085E00E94E9
:1006E000870089E00E9487008BE00E9487008FE0EE
:1006F0000E948700C0E0D0E00E942702E1E08091E4
:100700004E018111E0E0E195F0E0E55CFE4F848967
:1007100080680E9421028CE091E00E947E0161E0ED
:1007200083E00E94D30061E086E00E94D30061E094
:100730008AE00E94D30061E08EE00E94D30060E076
:1007400085E00E94D30060E089E00E94D30060E071
:100750008BE00E94D30060E08FE00E94D3000E94F3
:1007600044010E94270284E191E00E947E0160E042
:1007700083E00E94D30060E086E00E94D30060E046
:100780008AE00E94D30060E08EE00E94D30061E026
:1007900085E00E94D30061E089E00E94D30061E01F
:1007A0008BE00E94D30061E08FE00E94D3000E94A2
:1007B00044010E9427028CE191E00E947E0161E0E9
:1007C00083E00E94D30060E086E00E94D30061E0F5
:1007D0008AE00E94D30060E08EE00E94D30060E0D7
:1007E00085E00E94D30060E089E00E94D30060E0D1
:1007F0008BE00E94D30060E08FE00E94D3000E9453
:1008000044010E94270287E291E00E947E0160E09D
:1008100083E00E94D30060E086E00E94D30060E0A5
:100820008AE00E94D30060E08EE00E94D30060E086
:1008300085E00E94D30061E089E00E94D30060E07F
:100840008BE00E94D30061E08FE00E94D3000E9401
:100850004401209709F450CF0E9400004DCFEBE3F4
:10086000F1E01382128284E091E0918380838DE035
:1008700084838FEF85838CE0868388E0878387E09D
:10088000808784E0818782E08287138614861586BC
:100890001686178681E00C942F02EE0FFF1F05903D
:0A08A000F491E02D0994F894FFCFC5
:1008AA0000000000CC02A6007B017A01466F727735
:1008BA0061726400526576657273650052494748F1
:1008CA0054205455524E004C454654205455524ECD
:0208DA0000001C
:107E0000112484B714BE81FFF0D085E080938100F7
:107E100082E08093C00088E18093C10086E0809377
:107E2000C20080E18093C4008EE0C9D0259A86E02C
:107E300020E33CEF91E0309385002093840096BBD3
:107E4000B09BFECF1D9AA8958150A9F7CC24DD24C4
:107E500088248394B5E0AB2EA1E19A2EF3E0BF2EE7
:107E6000A2D0813461F49FD0082FAFD0023811F036
:107E7000013811F484E001C083E08DD089C08234E0
:107E800011F484E103C0853419F485E0A6D080C0E4
:107E9000853579F488D0E82EFF2485D0082F10E0AE
:107EA000102F00270E291F29000F111F8ED06801E7
:107EB0006FC0863521F484E090D080E0DECF843638
:107EC00009F040C070D06FD0082F6DD080E0C81688
:107ED00080E7D80618F4F601B7BEE895C0E0D1E017
:107EE00062D089930C17E1F7F0E0CF16F0E7DF06D8
:107EF00018F0F601B7BEE89568D007B600FCFDCFD4
:107F0000A601A0E0B1E02C9130E011968C91119780
:107F100090E0982F8827822B932B1296FA010C0160
:107F200087BEE89511244E5F5F4FF1E0A038BF0790
:107F300051F7F601A7BEE89507B600FCFDCF97BE46
:107F4000E89526C08437B1F42ED02DD0F82E2BD052
:107F50003CD0F601EF2C8F010F5F1F4F84911BD097
:107F6000EA94F801C1F70894C11CD11CFA94CF0C13
:107F7000D11C0EC0853739F428D08EE10CD085E9AC
:107F80000AD08FE07ACF813511F488E018D01DD067
:107F900080E101D065CF982F8091C00085FFFCCF94
:107FA0009093C60008958091C00087FFFCCF809118
:107FB000C00084FD01C0A8958091C6000895E0E648
:107FC000F0E098E1908380830895EDDF803219F02E
:107FD00088E0F5DFFFCF84E1DECF1F93182FE3DFCA
:107FE0001150E9F7F2DF1F91089580E0E8DFEE27F6
:047FF000FF270994CA
:027FFE00040479
:0400000300007E007B
:00000001FF
